:020000021000EC
:10E000000C9446F00C9465F00C9465F00C9465F05B
:10E010000C9465F00C9465F00C9465F00C9465F02C
:10E020000C9465F00C9465F00C9465F00C9465F01C
:10E030000C9465F00C9465F00C9465F00C9465F00C
:10E040000C9465F00C9465F00C9465F00C9465F0FC
:10E050000C9465F00C9465F00C9465F00C9465F0EC
:10E060000C9465F00C9465F00C9465F00C9465F0DC
:10E070000C9465F00C9465F00C9465F00C9465F0CC
:10E080000C9465F00C9465F00C9465F011241FBE9F
:10E09000CFEFD0E1DEBFCDBF11E0A0E0B1E0ECEB0F
:10E0A000FFEE01E00BBF02C007900D92A834B1074C
:10E0B000D9F713E0A8E4B1E001C01D92A53BB10778
:10E0C000E1F70E94A6F60C94DCF70C9400F0EF92B6
:10E0D000FF920F931F93CF93DF937B018C0120E17D
:10E0E00032E040E050E00E94BAF7E901C801B70110
:10E0F00020E132E040E050E00E94BAF7809BFECF82
:10E10000C098809BFECF82ED8FB9779BFECFCE016A
:10E1100026E0969587952A95E1F78FB9779BFECFF4
:10E120009E01220F220F822F7370872B8FB9779B4E
:10E13000FECF6FB9779BFECF1FB8779BFECF1FB87E
:10E14000779BFECF1FB8779BFECF1FB8779BFECF84
:10E150001FB8779BFECF8FB1C09ADF91CF911F91EF
:10E160000F91FF90EF9008952F923F924F925F9200
:10E170006F927F928F929F92AF92BF92CF92DF92D7
:10E18000EF92FF920F931F93DF93CF93CDB7DEB73C
:10E190002697DEBFCDBF8BE180938802809154012A
:10E1A000809389028EE080938C026DE872E0709318
:10E1B000290160932801655070408CE591E09093AF
:10E1C00027018093260150915C01523109F4AAC0C5
:10E1D0005331A8F4533009F44FC0543030F4513067
:10E1E00039F1523009F038C582C0503109F47FC08E
:10E1F000513108F085C0563009F02EC5DEC05631C9
:10E2000009F4BBC4573150F4543109F4E9C2BC01DC
:10E21000665F7F4F553108F047C402C15A3109F497
:10E22000FCC45B3109F49EC0583109F015C5F5C432
:10E23000AEE2B1E08BE090E0909349018093480119
:10E2400050938D0210928E0288E080938F02685F57
:10E250007F4F70932901609328010AC0E091280143
:10E26000F09129018193F0932901E09328011196FF
:10E270008C91882399F709C583E090E09093490138
:10E280008093480150938D0210928E0280915D011F
:10E29000853919F1863960F48139D9F0823918F459
:10E2A000803971F416C08239B1F0843949F415C04F
:10E2B0008739A9F0873998F0883989F08A3989F047
:10E2C00010928F0280E992E09093290180932801B7
:10E2D000DCC482E007C08AE005C082E303C081E0BD
:10E2E00001C08AEA80938F02685F7F4F16C082E088
:10E2F00090E0909349018093480150938D0209C0AA
:10E3000082E090E0909349018093480181E18093FD
:10E310008D0210928E02695F7F4F70932901609386
:10E320002801B3C480E090E0A0E0B0E023E0FC016D
:10E33000A0935B0020936800E8958091680080FDC1
:10E34000FCCF81E180936800E89582E090E09093B3
:10E35000490180934801A0912801B0912901FD0154
:10E3600082E107C484E090E09093490180934801E2
:10E3700050938D0210928E0280916001882311F4D7
:10E380008EE103C0813051F487E980938F02685F8A
:10E390007F4F709329016093280180C39B01285F00
:10E3A0003F4F823019F480938F0202C010928F0287
:10E3B000309329012093280171C340915F01942F6C
:10E3C00080E02091600130E0820F931F9093500114
:10E3D00080934F01942F80E0820F931F880F991F25
:10E3E000AA2797FDA095BA2F80934B0190934C01DB
:10E3F000A0934D01B0934E0182E090E090934901CB
:10E400008093480150938D0210928E02695F7F4F76
:10E41000709329016093280181E080935A0135C4EB
:10E4200090915D0180E020915E01820F911D90939B
:10E4300052018093510170932701609326017E83DE
:10E440006D839695879596958795682FBEC0AD810B
:10E45000BE816D907D908D909C90BFEF6B16BFEF4D
:10E460007B06BFEF8B06BFEF9B0661F4ED81FE815B
:10E4700084819581A681B7818F5F9F4FAF4FBF4F3A
:10E4800009F4A3C02D813E812C5F3F4F3C832B8339
:10E49000AD81BE8114962D903D904D905C90179764
:10E4A00000E2A02E07E3B02E0FEEC02E06ECD02E19
:10E4B000D601C5011BE0B695A795979587951A9546
:10E4C000D1F783709070880F991F880F991F895C0E
:10E4D0009E4FFC01E080F18002811381EA0CFB1C5D
:10E4E0000C1D1D1DD401C301E5E0B695A7959795B8
:10E4F0008795EA95D1F7A401930174E0220F331FA9
:10E50000441F551F7A95D1F782279327A427B52753
:10E51000860D971DA81DB91DE826F9260A271B2779
:10E520002E183F08400A510A87E496E8A8ECB1E6A5
:10E53000A80EB91ECA1EDB1EF501E370F070EE0FC7
:10E54000FF1FEE0FFF1FE95CFE4FE080F1800281AC
:10E550001381EA0CFB1C0C1D1D1DD201C101E5E05D
:10E56000B695A79597958795EA95D1F7A201910160
:10E5700074E0220F331F441F551F7A95D1F782276D
:10E580009327A427B527820D931DA41DB51DE8264A
:10E59000F9260A271B276E187F08800A910AA11402
:10E5A000B104C104D10409F083CFAD81BE816D9265
:10E5B0007D928D929C921397EB81FC81DF012D92CD
:10E5C0003D924D925D92BE83AD8362506E3F09F0E5
:10E5D0003ECF20914B0130914C0140914D01509123
:10E5E0004E01A12C6FEFB62E6FEFC62E6FEFD62E19
:10E5F000A222B322C422D5228091510190915201CE
:10E60000A0E0B0E0820F931FA41FB51F80708A198D
:10E610009B09AC09BD09892F9A2FAB2FBB278F5FB0
:10E6200080935301109259011092580177247394EA
:10E6300083E0882E05E0902E11E1E12E88C0109233
:10E6400057011092560152C0AC0160E070E04A0DD3
:10E650005B1D6C1D7D1D00914B0110914C012091A3
:10E660004D0130914E01401751076207730778F052
:10E670008091510190915201A0E0B0E0800F911F74
:10E68000A21FB31F84179507A607B70758F46BBFDF
:10E69000FA0127914F5F5F4F6F4F7F4F6BBFFA01BA
:10E6A000A7910BC0E0912601F09127012081A18163
:10E6B0003296F0932701E0932601809156019091C4
:10E6C0005701AC0160E070E05A2E442430E0242968
:10E6D00035290901FA0160935B0070926800E895A2
:10E6E0001124029690935701809356018091560110
:10E6F000909157018F3F910509F008F4A5CFF501DE
:10E70000C0925B0080926800E8958091680080FD6F
:10E71000FCCFF501C0925B0090926800E895809173
:10E72000680080FDFCCFE0926800E89580E091E011
:10E73000A0E0B0E0A80EB91ECA1EDB1E80915801F1
:10E7400090915901019690935901809358018091BD
:10E75000530190E020915801309159012817390751
:10E7600008F46DCF209151013091520140E050E00A
:10E7700080914B0190914C01A0914D01B0914E01BF
:10E78000820F931FA41FB51F80934B0190934C01E0
:10E79000A0934D01B0934E01109257011092560173
:10E7A0002FEF09C0FC01E45AFE4F2083019690939D
:10E7B0005701809356018091560190915701A1E035
:10E7C0008C329A0778F382E090E09093490180932D
:10E7D0004801A0912801B0912901FD0183E1C9C13F
:10E7E00050938D0210928E02695F7F4F70932901C2
:10E7F0006093280190915D0180E020915E01820F7D
:10E80000911D9093520180935101109257011092E3
:10E810005601EE24EA9462C040914B0150914C01A4
:10E8200060914D0170914E014030B0EE5B07B1E058
:10E830006B07B0E07B0730F0E0912801F0912901EF
:10E84000E1923DC080915B018823D1F49091280131
:10E85000209129014F5F5F4F6F4F7F4F40934B01D6
:10E8600050934C0160934D0170934E0141505040C4
:10E87000604070406BBFFA018791E92FF22F1EC0F4
:10E880008091B403882349F1109128010091290156
:10E890004F5F5F4F6F4F7F4F40934B0150934C0141
:10E8A00060934D0170934E01415050406040704064
:10E8B000CB01BA010E9467F0E12FF02F8193F09312
:10E8C0002901E0932801809156019091570101960A
:10E8D000909357018093560101C0FFCF20915101C1
:10E8E0003091520180915601909157018217930700
:10E8F00008F492CFEFE8F2E0FE83ED83369527959A
:10E9000036952795622FBDC0AD81BE816D907D90FB
:10E910008D909C90BFEF6B16BFEF7B06BFEF8B0611
:10E92000BFEF9B0661F4ED81FE8184819581A68114
:10E93000B7818F5F9F4FAF4FBF4F09F4A2C02D81AA
:10E940003E812C5F3F4F3A832983AD81BE8114966F
:10E950002D903D904D905C901797AA24BB246501A3
:10E96000F501E370F070EE0FFF1FEE0FFF1FE95C83
:10E97000FE4FE080F18002811381EA0CFB1C0C1D2C
:10E980001D1DD201C101E5E0B695A7959795879524
:10E99000EA95D1F7A201910174E0220F331F441FC1
:10E9A000551F7A95D1F782279327A427B527820D83
:10E9B000931DA41DB51DE826F9260A271B276E0CFA
:10E9C0007F1C801E911E89EB99E7A7E3BEE9A80E84
:10E9D000B91ECA1EDB1EA4019301A5E056954795FA
:10E9E00037952795AA95D1F7D401C301F4E0880F94
:10E9F000991FAA1FBB1FFA95D1F7282739274A2745
:10EA00005B27260D371D481D591DD601C501EBE0BA
:10EA1000B695A79597958795EA95D1F783709070ED
:10EA2000880F991F880F991F895C9E4FFC01808178
:10EA30009181A281B3818A0D9B1DAC1DBD1D28272C
:10EA400039274A275B27220E331E441E551EF0E24B
:10EA5000AF16F7E3BF06FFEECF06F6ECDF0609F0D0
:10EA60007FCFAD81BE816D927D928D929C921397E6
:10EA7000E981FA81DF012D923D924D925D92BE8334
:10EA8000AD8362506E3F09F03FCF8091510190916C
:10EA9000520103969093490180934801E091280127
:10EAA000F09129011192EDC090915D0180E02091DB
:10EAB0005E01820F911D90935201809351017093DA
:10EAC000270160932601109259011092580123C02A
:10EAD00080914F0190915001019690935001809345
:10EAE0004F010197E0912601F09127012191F093C8
:10EAF0002701E0932601E199FECF9FBB8EBB2DBB82
:10EB0000E29AE19A8091580190915901019690936F
:10EB100059018093580120915801309159018091F9
:10EB20005101909152012817390790F21092570124
:10EB3000109256012FEF09C0FC01E45AFE4F2083CA
:10EB400001969093570180935601809156019091C0
:10EB50005701B1E08C329B0778F382E090E090930C
:10EB6000490180934801A0912801B0912901FD013C
:10EB700085E1819311961C9283C050938D0210926F
:10EB80008E02695F7F4F70932901609328019091F5
:10EB90005D0180E020915E01820F911D90935201F2
:10EBA0008093510110925701109256011FC080911D
:10EBB0004F019091500101969093500180934F0125
:10EBC0000197E199FECF9FBB8EBBE09A8DB3FA010E
:10EBD0008193F0932901E09328018091560190914F
:10EBE000570101969093570180935601209151014E
:10EBF0003091520180915601909157014091280126
:10EC0000509129018217930790F22D5F3F4F309367
:10EC1000490120934801FA0145CF84E090E09093A8
:10EC2000490180934801A0912801B0912901E09108
:10EC30002601F09127018081FD01819311961C929C
:10EC4000DF011196118211961C9211971296B093C2
:10EC50002901A093280119C082E090E09093490116
:10EC600080934801A0912801B0912901E0912601EB
:10EC7000F09127018081FD01819380EC11968C93A6
:10EC80003196F0932901E0932801E0912A01F09157
:10EC90002B01809149018083E0912A01F0912B01A1
:10ECA00080914801818320912801309129012858C1
:10ECB000324010924A01E8E8F2E02E0F3F1F70E365
:10ECC00060E157E248E014C0908109C0959A7093C2
:10ECD00003306093003050930030409300405D9BC0
:10ECE000F5CF9CB980914A01892780934A013196DA
:10ECF000E217F30749F780914A0140E330E127E248
:10ED000098E009C0959A40930330309300302093E7
:10ED10000030909300405D9BF5CF8CB910924A0172
:10ED20002696DEBFCDBFCF91DF911F910F91FF904F
:10ED3000EF90DF90CF90BF90AF909F908F907F909B
:10ED40006F905F904F903F902F900895CF92DF92F9
:10ED5000EF92FF920F931F93CF93DF9387B3876058
:10ED600087BB0A9B02C00C94000083E089B9109213
:10ED700090001BB886E08093950088E18AB980EC0A
:10ED800085BF8EE080936D0080E880936C008D9A43
:10ED9000959A98E09093004081E280930A208091B8
:10EDA0000B20846080930B20959A80E3809303303E
:10EDB00080E18093003087E28093003090930040A0
:10EDC00080E58DB91EB810925A0110925B01C0E027
:10EDD000D1E0E6EACE2EE2E0DE2EE12CF12C188125
:10EDE000C701B6010E9467F0181711F080E00BC050
:10EDF00021960894C11CD11CE11CF11C81E0C63293
:10EE0000D80769F781E08093B40320E070E3C72E50
:10EE100060E1D62E57E2E52E48E0F42E0CE511E035
:10EE200003C026E001C020E080914A0109C0959A04
:10EE3000C0920330D0920030E0920030F092004057
:10EE40005F9BF5CF3CB18327243079F1253038F42E
:10EE50002230E9F0233008F5222341F0F1CF2630AB
:10EE6000C1F1263080F1273059F74CC080934A0118
:10EE70003B3151F410932701009326011092490170
:10EE80001092480122E0D0CF10924A01CDCF80935A
:10EE90004A013093540123E0C7CF80934A01109276
:10EEA00048013093490124E0BFCF80934A0180910B
:10EEB000480190914901830F911D909349018093DE
:10EEC000480125E0B1CF80934A013E3009F0ABCF35
:10EED000A8CF80934A01E0912601F0912701319358
:10EEE000F0932701E0932601809148019091490118
:10EEF00001979093490180934801892B09F094CFA1
:10EF000027E092CF80934A01882309F08CCF0E949A
:10EF1000B4F080915A01882309F485CF60E872E04B
:10EF2000959AC0920330D0920030E0920030F09277
:10EF30000040C0E0D1E0AB01CA01A0E0B0E0ABBF4F
:10EF4000FC0187912881281749F421964F5F5F4F74
:10EF500081E0C632D80781F781E007C06F5F7F4F3D
:10EF600082E06F3F7807E1F680E080935B011092CA
:10EF70005A0159CFA1E21A2EAA1BBB1BFD010DC0DD
:10EF8000AA1FBB1FEE1FFF1FA217B307E407F50759
:10EF900020F0A21BB30BE40BF50B661F771F881F35
:10EFA000991F1A9469F760957095809590959B01CB
:0CEFB000AC01BD01CF010895F894FFCF23
:10EFBC000D0AE22064303236333030383062204D66
:10EFCC00617920313920323030382031343A3335C0
:10EFDC003A32310D0A005C0188028A028D025354C8
:10EFEC004B3530305F3200554F4C46204B45544525
:08EFFC004D454D312034580051
:040000031000E00009
:00000001FF
:020000021000EC
:10FFC000554F4C46204B4554454D454D31203458F6
:00000001FF
